{
  "_format": "hh-sol-artifact-1",
  "contractName": "BlockRight",
  "sourceName": "contracts/BlockRight.sol",
  "abi": [
    {
      "inputs": [],
      "stateMutability": "nonpayable",
      "type": "constructor"
    },
    {
      "inputs": [
        {
          "internalType": "address",
          "name": "sender",
          "type": "address"
        },
        {
          "internalType": "uint256",
          "name": "tokenId",
          "type": "uint256"
        },
        {
          "internalType": "address",
          "name": "owner",
          "type": "address"
        }
      ],
      "name": "ERC721IncorrectOwner",
      "type": "error"
    },
    {
      "inputs": [
        {
          "internalType": "address",
          "name": "operator",
          "type": "address"
        },
        {
          "internalType": "uint256",
          "name": "tokenId",
          "type": "uint256"
        }
      ],
      "name": "ERC721InsufficientApproval",
      "type": "error"
    },
    {
      "inputs": [
        {
          "internalType": "address",
          "name": "approver",
          "type": "address"
        }
      ],
      "name": "ERC721InvalidApprover",
      "type": "error"
    },
    {
      "inputs": [
        {
          "internalType": "address",
          "name": "operator",
          "type": "address"
        }
      ],
      "name": "ERC721InvalidOperator",
      "type": "error"
    },
    {
      "inputs": [
        {
          "internalType": "address",
          "name": "owner",
          "type": "address"
        }
      ],
      "name": "ERC721InvalidOwner",
      "type": "error"
    },
    {
      "inputs": [
        {
          "internalType": "address",
          "name": "receiver",
          "type": "address"
        }
      ],
      "name": "ERC721InvalidReceiver",
      "type": "error"
    },
    {
      "inputs": [
        {
          "internalType": "address",
          "name": "sender",
          "type": "address"
        }
      ],
      "name": "ERC721InvalidSender",
      "type": "error"
    },
    {
      "inputs": [
        {
          "internalType": "uint256",
          "name": "tokenId",
          "type": "uint256"
        }
      ],
      "name": "ERC721NonexistentToken",
      "type": "error"
    },
    {
      "inputs": [
        {
          "internalType": "address",
          "name": "owner",
          "type": "address"
        }
      ],
      "name": "OwnableInvalidOwner",
      "type": "error"
    },
    {
      "inputs": [
        {
          "internalType": "address",
          "name": "account",
          "type": "address"
        }
      ],
      "name": "OwnableUnauthorizedAccount",
      "type": "error"
    },
    {
      "inputs": [],
      "name": "ReentrancyGuardReentrantCall",
      "type": "error"
    },
    {
      "anonymous": false,
      "inputs": [
        {
          "indexed": true,
          "internalType": "address",
          "name": "owner",
          "type": "address"
        },
        {
          "indexed": true,
          "internalType": "address",
          "name": "approved",
          "type": "address"
        },
        {
          "indexed": true,
          "internalType": "uint256",
          "name": "tokenId",
          "type": "uint256"
        }
      ],
      "name": "Approval",
      "type": "event"
    },
    {
      "anonymous": false,
      "inputs": [
        {
          "indexed": true,
          "internalType": "address",
          "name": "owner",
          "type": "address"
        },
        {
          "indexed": true,
          "internalType": "address",
          "name": "operator",
          "type": "address"
        },
        {
          "indexed": false,
          "internalType": "bool",
          "name": "approved",
          "type": "bool"
        }
      ],
      "name": "ApprovalForAll",
      "type": "event"
    },
    {
      "anonymous": false,
      "inputs": [
        {
          "indexed": false,
          "internalType": "uint256",
          "name": "tokenId",
          "type": "uint256"
        },
        {
          "indexed": false,
          "internalType": "address",
          "name": "licensee",
          "type": "address"
        }
      ],
      "name": "ContentLicensed",
      "type": "event"
    },
    {
      "anonymous": false,
      "inputs": [
        {
          "indexed": false,
          "internalType": "uint256",
          "name": "tokenId",
          "type": "uint256"
        },
        {
          "indexed": false,
          "internalType": "address",
          "name": "creator",
          "type": "address"
        },
        {
          "indexed": false,
          "internalType": "string",
          "name": "contentHash",
          "type": "string"
        }
      ],
      "name": "ContentRegistered",
      "type": "event"
    },
    {
      "anonymous": false,
      "inputs": [
        {
          "indexed": true,
          "internalType": "address",
          "name": "previousOwner",
          "type": "address"
        },
        {
          "indexed": true,
          "internalType": "address",
          "name": "newOwner",
          "type": "address"
        }
      ],
      "name": "OwnershipTransferred",
      "type": "event"
    },
    {
      "anonymous": false,
      "inputs": [
        {
          "indexed": false,
          "internalType": "uint256",
          "name": "tokenId",
          "type": "uint256"
        },
        {
          "indexed": false,
          "internalType": "address",
          "name": "payer",
          "type": "address"
        },
        {
          "indexed": false,
          "internalType": "uint256",
          "name": "amount",
          "type": "uint256"
        }
      ],
      "name": "PaymentReceived",
      "type": "event"
    },
    {
      "anonymous": false,
      "inputs": [
        {
          "indexed": true,
          "internalType": "address",
          "name": "from",
          "type": "address"
        },
        {
          "indexed": true,
          "internalType": "address",
          "name": "to",
          "type": "address"
        },
        {
          "indexed": true,
          "internalType": "uint256",
          "name": "tokenId",
          "type": "uint256"
        }
      ],
      "name": "Transfer",
      "type": "event"
    },
    {
      "inputs": [
        {
          "internalType": "address",
          "name": "to",
          "type": "address"
        },
        {
          "internalType": "uint256",
          "name": "tokenId",
          "type": "uint256"
        }
      ],
      "name": "approve",
      "outputs": [],
      "stateMutability": "nonpayable",
      "type": "function"
    },
    {
      "inputs": [
        {
          "internalType": "address",
          "name": "owner",
          "type": "address"
        }
      ],
      "name": "balanceOf",
      "outputs": [
        {
          "internalType": "uint256",
          "name": "",
          "type": "uint256"
        }
      ],
      "stateMutability": "view",
      "type": "function"
    },
    {
      "inputs": [
        {
          "internalType": "uint256",
          "name": "",
          "type": "uint256"
        },
        {
          "internalType": "address",
          "name": "",
          "type": "address"
        }
      ],
      "name": "contentLicenses",
      "outputs": [
        {
          "internalType": "bool",
          "name": "",
          "type": "bool"
        }
      ],
      "stateMutability": "view",
      "type": "function"
    },
    {
      "inputs": [
        {
          "internalType": "uint256",
          "name": "",
          "type": "uint256"
        }
      ],
      "name": "contents",
      "outputs": [
        {
          "internalType": "string",
          "name": "contentHash",
          "type": "string"
        },
        {
          "internalType": "address",
          "name": "creator",
          "type": "address"
        },
        {
          "internalType": "uint256",
          "name": "creationTime",
          "type": "uint256"
        },
        {
          "internalType": "string",
          "name": "metadataURI",
          "type": "string"
        },
        {
          "internalType": "bool",
          "name": "isCommercial",
          "type": "bool"
        },
        {
          "internalType": "uint256",
          "name": "price",
          "type": "uint256"
        }
      ],
      "stateMutability": "view",
      "type": "function"
    },
    {
      "inputs": [
        {
          "internalType": "uint256",
          "name": "tokenId",
          "type": "uint256"
        }
      ],
      "name": "getApproved",
      "outputs": [
        {
          "internalType": "address",
          "name": "",
          "type": "address"
        }
      ],
      "stateMutability": "view",
      "type": "function"
    },
    {
      "inputs": [
        {
          "internalType": "uint256",
          "name": "tokenId",
          "type": "uint256"
        }
      ],
      "name": "getContent",
      "outputs": [
        {
          "components": [
            {
              "internalType": "string",
              "name": "contentHash",
              "type": "string"
            },
            {
              "internalType": "address",
              "name": "creator",
              "type": "address"
            },
            {
              "internalType": "uint256",
              "name": "creationTime",
              "type": "uint256"
            },
            {
              "internalType": "string",
              "name": "metadataURI",
              "type": "string"
            },
            {
              "internalType": "bool",
              "name": "isCommercial",
              "type": "bool"
            },
            {
              "internalType": "uint256",
              "name": "price",
              "type": "uint256"
            }
          ],
          "internalType": "struct BlockRight.Content",
          "name": "",
          "type": "tuple"
        }
      ],
      "stateMutability": "view",
      "type": "function"
    },
    {
      "inputs": [
        {
          "internalType": "uint256",
          "name": "tokenId",
          "type": "uint256"
        },
        {
          "internalType": "address",
          "name": "user",
          "type": "address"
        }
      ],
      "name": "hasLicense",
      "outputs": [
        {
          "internalType": "bool",
          "name": "",
          "type": "bool"
        }
      ],
      "stateMutability": "view",
      "type": "function"
    },
    {
      "inputs": [
        {
          "internalType": "address",
          "name": "owner",
          "type": "address"
        },
        {
          "internalType": "address",
          "name": "operator",
          "type": "address"
        }
      ],
      "name": "isApprovedForAll",
      "outputs": [
        {
          "internalType": "bool",
          "name": "",
          "type": "bool"
        }
      ],
      "stateMutability": "view",
      "type": "function"
    },
    {
      "inputs": [
        {
          "internalType": "uint256",
          "name": "tokenId",
          "type": "uint256"
        }
      ],
      "name": "licenseContent",
      "outputs": [],
      "stateMutability": "payable",
      "type": "function"
    },
    {
      "inputs": [],
      "name": "name",
      "outputs": [
        {
          "internalType": "string",
          "name": "",
          "type": "string"
        }
      ],
      "stateMutability": "view",
      "type": "function"
    },
    {
      "inputs": [],
      "name": "owner",
      "outputs": [
        {
          "internalType": "address",
          "name": "",
          "type": "address"
        }
      ],
      "stateMutability": "view",
      "type": "function"
    },
    {
      "inputs": [
        {
          "internalType": "uint256",
          "name": "tokenId",
          "type": "uint256"
        }
      ],
      "name": "ownerOf",
      "outputs": [
        {
          "internalType": "address",
          "name": "",
          "type": "address"
        }
      ],
      "stateMutability": "view",
      "type": "function"
    },
    {
      "inputs": [
        {
          "internalType": "string",
          "name": "contentHash",
          "type": "string"
        },
        {
          "internalType": "string",
          "name": "metadataURI",
          "type": "string"
        },
        {
          "internalType": "bool",
          "name": "isCommercial",
          "type": "bool"
        },
        {
          "internalType": "uint256",
          "name": "price",
          "type": "uint256"
        }
      ],
      "name": "registerContent",
      "outputs": [
        {
          "internalType": "uint256",
          "name": "",
          "type": "uint256"
        }
      ],
      "stateMutability": "nonpayable",
      "type": "function"
    },
    {
      "inputs": [],
      "name": "renounceOwnership",
      "outputs": [],
      "stateMutability": "nonpayable",
      "type": "function"
    },
    {
      "inputs": [
        {
          "internalType": "address",
          "name": "from",
          "type": "address"
        },
        {
          "internalType": "address",
          "name": "to",
          "type": "address"
        },
        {
          "internalType": "uint256",
          "name": "tokenId",
          "type": "uint256"
        }
      ],
      "name": "safeTransferFrom",
      "outputs": [],
      "stateMutability": "nonpayable",
      "type": "function"
    },
    {
      "inputs": [
        {
          "internalType": "address",
          "name": "from",
          "type": "address"
        },
        {
          "internalType": "address",
          "name": "to",
          "type": "address"
        },
        {
          "internalType": "uint256",
          "name": "tokenId",
          "type": "uint256"
        },
        {
          "internalType": "bytes",
          "name": "data",
          "type": "bytes"
        }
      ],
      "name": "safeTransferFrom",
      "outputs": [],
      "stateMutability": "nonpayable",
      "type": "function"
    },
    {
      "inputs": [
        {
          "internalType": "address",
          "name": "operator",
          "type": "address"
        },
        {
          "internalType": "bool",
          "name": "approved",
          "type": "bool"
        }
      ],
      "name": "setApprovalForAll",
      "outputs": [],
      "stateMutability": "nonpayable",
      "type": "function"
    },
    {
      "inputs": [
        {
          "internalType": "bytes4",
          "name": "interfaceId",
          "type": "bytes4"
        }
      ],
      "name": "supportsInterface",
      "outputs": [
        {
          "internalType": "bool",
          "name": "",
          "type": "bool"
        }
      ],
      "stateMutability": "view",
      "type": "function"
    },
    {
      "inputs": [],
      "name": "symbol",
      "outputs": [
        {
          "internalType": "string",
          "name": "",
          "type": "string"
        }
      ],
      "stateMutability": "view",
      "type": "function"
    },
    {
      "inputs": [
        {
          "internalType": "uint256",
          "name": "tokenId",
          "type": "uint256"
        }
      ],
      "name": "tokenURI",
      "outputs": [
        {
          "internalType": "string",
          "name": "",
          "type": "string"
        }
      ],
      "stateMutability": "view",
      "type": "function"
    },
    {
      "inputs": [
        {
          "internalType": "address",
          "name": "from",
          "type": "address"
        },
        {
          "internalType": "address",
          "name": "to",
          "type": "address"
        },
        {
          "internalType": "uint256",
          "name": "tokenId",
          "type": "uint256"
        }
      ],
      "name": "transferFrom",
      "outputs": [],
      "stateMutability": "nonpayable",
      "type": "function"
    },
    {
      "inputs": [
        {
          "internalType": "address",
          "name": "newOwner",
          "type": "address"
        }
      ],
      "name": "transferOwnership",
      "outputs": [],
      "stateMutability": "nonpayable",
      "type": "function"
    },
    {
      "inputs": [
        {
          "internalType": "uint256",
          "name": "tokenId",
          "type": "uint256"
        },
        {
          "internalType": "uint256",
          "name": "newPrice",
          "type": "uint256"
        }
      ],
      "name": "updateContentPrice",
      "outputs": [],
      "stateMutability": "nonpayable",
      "type": "function"
    },
    {
      "inputs": [
        {
          "internalType": "uint256",
          "name": "tokenId",
          "type": "uint256"
        },
        {
          "internalType": "string",
          "name": "contentHash",
          "type": "string"
        }
      ],
      "name": "verifyContentHash",
      "outputs": [
        {
          "internalType": "bool",
          "name": "",
          "type": "bool"
        }
      ],
      "stateMutability": "view",
      "type": "function"
    }
  ],
  "bytecode": "0x60806040523480156200001157600080fd5b50336040518060400160405280600a81526020017f426c6f636b5269676874000000000000000000000000000000000000000000008152506040518060400160405280600381526020017f4252540000000000000000000000000000000000000000000000000000000000815250816000908162000090919062000482565b508060019081620000a2919062000482565b505050600073ffffffffffffffffffffffffffffffffffffffff168173ffffffffffffffffffffffffffffffffffffffff16036200011a5760006040517f1e4fbdf7000000000000000000000000000000000000000000000000000000008152600401620001119190620005ae565b60405180910390fd5b6200012b816200014260201b60201c565b5060016007819055506000600881905550620005cb565b6000600660009054906101000a900473ffffffffffffffffffffffffffffffffffffffff16905081600660006101000a81548173ffffffffffffffffffffffffffffffffffffffff021916908373ffffffffffffffffffffffffffffffffffffffff1602179055508173ffffffffffffffffffffffffffffffffffffffff168173ffffffffffffffffffffffffffffffffffffffff167f8be0079c531659141344cd1fd0a4f28419497f9722a3daafe3b4186f6b6457e060405160405180910390a35050565b600081519050919050565b7f4e487b7100000000000000000000000000000000000000000000000000000000600052604160045260246000fd5b7f4e487b7100000000000000000000000000000000000000000000000000000000600052602260045260246000fd5b600060028204905060018216806200028a57607f821691505b602082108103620002a0576200029f62000242565b5b50919050565b60008190508160005260206000209050919050565b60006020601f8301049050919050565b600082821b905092915050565b6000600883026200030a7fffffffffffffffffffffffffffffffffffffffffffffffffffffffffffffffff82620002cb565b620003168683620002cb565b95508019841693508086168417925050509392505050565b6000819050919050565b6000819050919050565b6000620003636200035d62000357846200032e565b62000338565b6200032e565b9050919050565b6000819050919050565b6200037f8362000342565b620003976200038e826200036a565b848454620002d8565b825550505050565b600090565b620003ae6200039f565b620003bb81848462000374565b505050565b5b81811015620003e357620003d7600082620003a4565b600181019050620003c1565b5050565b601f8211156200043257620003fc81620002a6565b6200040784620002bb565b8101602085101562000417578190505b6200042f6200042685620002bb565b830182620003c0565b50505b505050565b600082821c905092915050565b6000620004576000198460080262000437565b1980831691505092915050565b600062000472838362000444565b9150826002028217905092915050565b6200048d8262000208565b67ffffffffffffffff811115620004a957620004a862000213565b5b620004b5825462000271565b620004c2828285620003e7565b600060209050601f831160018114620004fa5760008415620004e5578287015190505b620004f1858262000464565b86555062000561565b601f1984166200050a86620002a6565b60005b8281101562000534578489015182556001820191506020850194506020810190506200050d565b8683101562000554578489015162000550601f89168262000444565b8355505b6001600288020188555050505b505050505050565b600073ffffffffffffffffffffffffffffffffffffffff82169050919050565b6000620005968262000569565b9050919050565b620005a88162000589565b82525050565b6000602082019050620005c560008301846200059d565b92915050565b6137c980620005db6000396000f3fe60806040526004361061014b5760003560e01c80637dc46ebe116100b6578063b5ecf9121161006f578063b5ecf912146104da578063b88d4fde1461051c578063c5019f3a14610545578063c87b56dd14610561578063e985e9c51461059e578063f2fde38b146105db5761014b565b80637dc46ebe146103b857806387a38dbe146103f55780638da5cb5b1461041e5780638f4ec35b1461044957806395d89b4114610486578063a22cb465146104b15761014b565b806323b872dd1161010857806323b872dd1461029857806342842e0e146102c15780634b997fa2146102ea5780636352211e1461032757806370a0823114610364578063715018a6146103a15761014b565b806301ffc9a71461015057806306fdde031461018d578063081812fc146101b8578063095ea7b3146101f55780630b7ad54c1461021e5780631fe5b03c1461025b575b600080fd5b34801561015c57600080fd5b5061017760048036038101906101729190612731565b610604565b6040516101849190612779565b60405180910390f35b34801561019957600080fd5b506101a26106e6565b6040516101af9190612824565b60405180910390f35b3480156101c457600080fd5b506101df60048036038101906101da919061287c565b610778565b6040516101ec91906128ea565b60405180910390f35b34801561020157600080fd5b5061021c60048036038101906102179190612931565b610794565b005b34801561022a57600080fd5b506102456004803603810190610240919061287c565b6107aa565b6040516102529190612a78565b60405180910390f35b34801561026757600080fd5b50610282600480360381019061027d9190612bfb565b6109f7565b60405161028f9190612ca9565b60405180910390f35b3480156102a457600080fd5b506102bf60048036038101906102ba9190612cc4565b610b6d565b005b3480156102cd57600080fd5b506102e860048036038101906102e39190612cc4565b610c6f565b005b3480156102f657600080fd5b50610311600480360381019061030c9190612d17565b610c8f565b60405161031e9190612779565b60405180910390f35b34801561033357600080fd5b5061034e6004803603810190610349919061287c565b610cf7565b60405161035b91906128ea565b60405180910390f35b34801561037057600080fd5b5061038b60048036038101906103869190612d57565b610d09565b6040516103989190612ca9565b60405180910390f35b3480156103ad57600080fd5b506103b6610dc3565b005b3480156103c457600080fd5b506103df60048036038101906103da9190612d84565b610dd7565b6040516103ec9190612779565b60405180910390f35b34801561040157600080fd5b5061041c60048036038101906104179190612de0565b610ebb565b005b34801561042a57600080fd5b50610433610fc7565b60405161044091906128ea565b60405180910390f35b34801561045557600080fd5b50610470600480360381019061046b9190612d17565b610ff1565b60405161047d9190612779565b60405180910390f35b34801561049257600080fd5b5061049b611020565b6040516104a89190612824565b60405180910390f35b3480156104bd57600080fd5b506104d860048036038101906104d39190612e20565b6110b2565b005b3480156104e657600080fd5b5061050160048036038101906104fc919061287c565b6110c8565b60405161051396959493929190612e60565b60405180910390f35b34801561052857600080fd5b50610543600480360381019061053e9190612f70565b611241565b005b61055f600480360381019061055a919061287c565b61125e565b005b34801561056d57600080fd5b506105886004803603810190610583919061287c565b6115dc565b6040516105959190612824565b60405180910390f35b3480156105aa57600080fd5b506105c560048036038101906105c09190612ff3565b611645565b6040516105d29190612779565b60405180910390f35b3480156105e757600080fd5b5061060260048036038101906105fd9190612d57565b6116d9565b005b60007f80ac58cd000000000000000000000000000000000000000000000000000000007bffffffffffffffffffffffffffffffffffffffffffffffffffffffff1916827bffffffffffffffffffffffffffffffffffffffffffffffffffffffff191614806106cf57507f5b5e139f000000000000000000000000000000000000000000000000000000007bffffffffffffffffffffffffffffffffffffffffffffffffffffffff1916827bffffffffffffffffffffffffffffffffffffffffffffffffffffffff1916145b806106df57506106de8261175f565b5b9050919050565b6060600080546106f590613062565b80601f016020809104026020016040519081016040528092919081815260200182805461072190613062565b801561076e5780601f106107435761010080835404028352916020019161076e565b820191906000526020600020905b81548152906001019060200180831161075157829003601f168201915b5050505050905090565b6000610783826117c9565b5061078d82611851565b9050919050565b6107a682826107a161188e565b611896565b5050565b6107b2612677565b600073ffffffffffffffffffffffffffffffffffffffff166107d3836118a8565b73ffffffffffffffffffffffffffffffffffffffff1603610829576040517f08c379a0000000000000000000000000000000000000000000000000000000008152600401610820906130df565b60405180910390fd5b600960008381526020019081526020016000206040518060c001604052908160008201805461085790613062565b80601f016020809104026020016040519081016040528092919081815260200182805461088390613062565b80156108d05780601f106108a5576101008083540402835291602001916108d0565b820191906000526020600020905b8154815290600101906020018083116108b357829003601f168201915b505050505081526020016001820160009054906101000a900473ffffffffffffffffffffffffffffffffffffffff1673ffffffffffffffffffffffffffffffffffffffff1673ffffffffffffffffffffffffffffffffffffffff1681526020016002820154815260200160038201805461094990613062565b80601f016020809104026020016040519081016040528092919081815260200182805461097590613062565b80156109c25780601f10610997576101008083540402835291602001916109c2565b820191906000526020600020905b8154815290600101906020018083116109a557829003601f168201915b505050505081526020016004820160009054906101000a900460ff161515151581526020016005820154815250509050919050565b6000600160086000828254610a0c919061312e565b9250508190555060006008549050610a2433826118e5565b6040518060c001604052808781526020013373ffffffffffffffffffffffffffffffffffffffff168152602001428152602001868152602001851515815260200184815250600960008381526020019081526020016000206000820151816000019081610a91919061330e565b5060208201518160010160006101000a81548173ffffffffffffffffffffffffffffffffffffffff021916908373ffffffffffffffffffffffffffffffffffffffff160217905550604082015181600201556060820151816003019081610af8919061330e565b5060808201518160040160006101000a81548160ff02191690831515021790555060a082015181600501559050507f330e2d6bd3af64344ce199c4178507418893035d3c9d7b828e2dc199ebf427b5813388604051610b59939291906133e0565b60405180910390a180915050949350505050565b600073ffffffffffffffffffffffffffffffffffffffff168273ffffffffffffffffffffffffffffffffffffffff1603610bdf5760006040517f64a0ae92000000000000000000000000000000000000000000000000000000008152600401610bd691906128ea565b60405180910390fd5b6000610bf38383610bee61188e565b611903565b90508373ffffffffffffffffffffffffffffffffffffffff168173ffffffffffffffffffffffffffffffffffffffff1614610c69578382826040517f64283d7b000000000000000000000000000000000000000000000000000000008152600401610c609392919061341e565b60405180910390fd5b50505050565b610c8a83838360405180602001604052806000815250611241565b505050565b6000600a600084815260200190815260200160002060008373ffffffffffffffffffffffffffffffffffffffff1673ffffffffffffffffffffffffffffffffffffffff16815260200190815260200160002060009054906101000a900460ff16905092915050565b6000610d02826117c9565b9050919050565b60008073ffffffffffffffffffffffffffffffffffffffff168273ffffffffffffffffffffffffffffffffffffffff1603610d7c5760006040517f89c62b64000000000000000000000000000000000000000000000000000000008152600401610d7391906128ea565b60405180910390fd5b600360008373ffffffffffffffffffffffffffffffffffffffff1673ffffffffffffffffffffffffffffffffffffffff168152602001908152602001600020549050919050565b610dcb611b1d565b610dd56000611ba4565b565b60008073ffffffffffffffffffffffffffffffffffffffff16610df9846118a8565b73ffffffffffffffffffffffffffffffffffffffff1603610e4f576040517f08c379a0000000000000000000000000000000000000000000000000000000008152600401610e46906130df565b60405180910390fd5b81604051602001610e609190613491565b6040516020818303038152906040528051906020012060096000858152602001908152602001600020600001604051602001610e9c919061352b565b6040516020818303038152906040528051906020012014905092915050565b600073ffffffffffffffffffffffffffffffffffffffff16610edc836118a8565b73ffffffffffffffffffffffffffffffffffffffff1603610f32576040517f08c379a0000000000000000000000000000000000000000000000000000000008152600401610f29906130df565b60405180910390fd5b3373ffffffffffffffffffffffffffffffffffffffff16610f5283610cf7565b73ffffffffffffffffffffffffffffffffffffffff1614610fa8576040517f08c379a0000000000000000000000000000000000000000000000000000000008152600401610f9f906135b4565b60405180910390fd5b8060096000848152602001908152602001600020600501819055505050565b6000600660009054906101000a900473ffffffffffffffffffffffffffffffffffffffff16905090565b600a6020528160005260406000206020528060005260406000206000915091509054906101000a900460ff1681565b60606001805461102f90613062565b80601f016020809104026020016040519081016040528092919081815260200182805461105b90613062565b80156110a85780601f1061107d576101008083540402835291602001916110a8565b820191906000526020600020905b81548152906001019060200180831161108b57829003601f168201915b5050505050905090565b6110c46110bd61188e565b8383611c6a565b5050565b60096020528060005260406000206000915090508060000180546110eb90613062565b80601f016020809104026020016040519081016040528092919081815260200182805461111790613062565b80156111645780601f1061113957610100808354040283529160200191611164565b820191906000526020600020905b81548152906001019060200180831161114757829003601f168201915b5050505050908060010160009054906101000a900473ffffffffffffffffffffffffffffffffffffffff16908060020154908060030180546111a590613062565b80601f01602080910402602001604051908101604052809291908181526020018280546111d190613062565b801561121e5780601f106111f35761010080835404028352916020019161121e565b820191906000526020600020905b81548152906001019060200180831161120157829003601f168201915b5050505050908060040160009054906101000a900460ff16908060050154905086565b61124c848484610b6d565b61125884848484611dd9565b50505050565b611266611f90565b600073ffffffffffffffffffffffffffffffffffffffff16611287826118a8565b73ffffffffffffffffffffffffffffffffffffffff16036112dd576040517f08c379a00000000000000000000000000000000000000000000000000000000081526004016112d4906130df565b60405180910390fd5b6000600960008381526020019081526020016000206040518060c001604052908160008201805461130d90613062565b80601f016020809104026020016040519081016040528092919081815260200182805461133990613062565b80156113865780601f1061135b57610100808354040283529160200191611386565b820191906000526020600020905b81548152906001019060200180831161136957829003601f168201915b505050505081526020016001820160009054906101000a900473ffffffffffffffffffffffffffffffffffffffff1673ffffffffffffffffffffffffffffffffffffffff1673ffffffffffffffffffffffffffffffffffffffff168152602001600282015481526020016003820180546113ff90613062565b80601f016020809104026020016040519081016040528092919081815260200182805461142b90613062565b80156114785780601f1061144d57610100808354040283529160200191611478565b820191906000526020600020905b81548152906001019060200180831161145b57829003601f168201915b505050505081526020016004820160009054906101000a900460ff161515151581526020016005820154815250509050806020015173ffffffffffffffffffffffffffffffffffffffff166108fc349081150290604051600060405180830381858888f193505050501580156114f2573d6000803e3d6000fd5b506001600a600084815260200190815260200160002060003373ffffffffffffffffffffffffffffffffffffffff1673ffffffffffffffffffffffffffffffffffffffff16815260200190815260200160002060006101000a81548160ff0219169083151502179055507f917a9fbe1493c2611127c8357d9d4cf890f7c81d172f565122cf73181391e7e1823360405161158d9291906135d4565b60405180910390a17f4d3f6d68b42e1e039d6e7323b2b8bdeaf223f453882ce17a5984f4d6aabbdb338233346040516115c8939291906135fd565b60405180910390a1506115d9611fd6565b50565b60606115e7826117c9565b5060006115f2611fe0565b90506000815111611612576040518060200160405280600081525061163d565b8061161c84611ff7565b60405160200161162d929190613634565b6040516020818303038152906040525b915050919050565b6000600560008473ffffffffffffffffffffffffffffffffffffffff1673ffffffffffffffffffffffffffffffffffffffff16815260200190815260200160002060008373ffffffffffffffffffffffffffffffffffffffff1673ffffffffffffffffffffffffffffffffffffffff16815260200190815260200160002060009054906101000a900460ff16905092915050565b6116e1611b1d565b600073ffffffffffffffffffffffffffffffffffffffff168173ffffffffffffffffffffffffffffffffffffffff16036117535760006040517f1e4fbdf700000000000000000000000000000000000000000000000000000000815260040161174a91906128ea565b60405180910390fd5b61175c81611ba4565b50565b60007f01ffc9a7000000000000000000000000000000000000000000000000000000007bffffffffffffffffffffffffffffffffffffffffffffffffffffffff1916827bffffffffffffffffffffffffffffffffffffffffffffffffffffffff1916149050919050565b6000806117d5836118a8565b9050600073ffffffffffffffffffffffffffffffffffffffff168173ffffffffffffffffffffffffffffffffffffffff160361184857826040517f7e27328900000000000000000000000000000000000000000000000000000000815260040161183f9190612ca9565b60405180910390fd5b80915050919050565b60006004600083815260200190815260200160002060009054906101000a900473ffffffffffffffffffffffffffffffffffffffff169050919050565b600033905090565b6118a383838360016120c5565b505050565b60006002600083815260200190815260200160002060009054906101000a900473ffffffffffffffffffffffffffffffffffffffff169050919050565b6118ff82826040518060200160405280600081525061228a565b5050565b60008061190f846118a8565b9050600073ffffffffffffffffffffffffffffffffffffffff168373ffffffffffffffffffffffffffffffffffffffff1614611951576119508184866122a6565b5b600073ffffffffffffffffffffffffffffffffffffffff168173ffffffffffffffffffffffffffffffffffffffff16146119e2576119936000856000806120c5565b6001600360008373ffffffffffffffffffffffffffffffffffffffff1673ffffffffffffffffffffffffffffffffffffffff168152602001908152602001600020600082825403925050819055505b600073ffffffffffffffffffffffffffffffffffffffff168573ffffffffffffffffffffffffffffffffffffffff1614611a65576001600360008773ffffffffffffffffffffffffffffffffffffffff1673ffffffffffffffffffffffffffffffffffffffff168152602001908152602001600020600082825401925050819055505b846002600086815260200190815260200160002060006101000a81548173ffffffffffffffffffffffffffffffffffffffff021916908373ffffffffffffffffffffffffffffffffffffffff160217905550838573ffffffffffffffffffffffffffffffffffffffff168273ffffffffffffffffffffffffffffffffffffffff167fddf252ad1be2c89b69c2b068fc378daa952ba7f163c4a11628f55a4df523b3ef60405160405180910390a4809150509392505050565b611b2561188e565b73ffffffffffffffffffffffffffffffffffffffff16611b43610fc7565b73ffffffffffffffffffffffffffffffffffffffff1614611ba257611b6661188e565b6040517f118cdaa7000000000000000000000000000000000000000000000000000000008152600401611b9991906128ea565b60405180910390fd5b565b6000600660009054906101000a900473ffffffffffffffffffffffffffffffffffffffff16905081600660006101000a81548173ffffffffffffffffffffffffffffffffffffffff021916908373ffffffffffffffffffffffffffffffffffffffff1602179055508173ffffffffffffffffffffffffffffffffffffffff168173ffffffffffffffffffffffffffffffffffffffff167f8be0079c531659141344cd1fd0a4f28419497f9722a3daafe3b4186f6b6457e060405160405180910390a35050565b600073ffffffffffffffffffffffffffffffffffffffff168273ffffffffffffffffffffffffffffffffffffffff1603611cdb57816040517f5b08ba18000000000000000000000000000000000000000000000000000000008152600401611cd291906128ea565b60405180910390fd5b80600560008573ffffffffffffffffffffffffffffffffffffffff1673ffffffffffffffffffffffffffffffffffffffff16815260200190815260200160002060008473ffffffffffffffffffffffffffffffffffffffff1673ffffffffffffffffffffffffffffffffffffffff16815260200190815260200160002060006101000a81548160ff0219169083151502179055508173ffffffffffffffffffffffffffffffffffffffff168373ffffffffffffffffffffffffffffffffffffffff167f17307eab39ab6107e8899845ad3d59bd9653f200f220920489ca2b5937696c3183604051611dcc9190612779565b60405180910390a3505050565b60008373ffffffffffffffffffffffffffffffffffffffff163b1115611f8a578273ffffffffffffffffffffffffffffffffffffffff1663150b7a02611e1d61188e565b8685856040518563ffffffff1660e01b8152600401611e3f94939291906136ad565b6020604051808303816000875af1925050508015611e7b57506040513d601f19601f82011682018060405250810190611e78919061370e565b60015b611eff573d8060008114611eab576040519150601f19603f3d011682016040523d82523d6000602084013e611eb0565b606091505b506000815103611ef757836040517f64a0ae92000000000000000000000000000000000000000000000000000000008152600401611eee91906128ea565b60405180910390fd5b805181602001fd5b63150b7a0260e01b7bffffffffffffffffffffffffffffffffffffffffffffffffffffffff1916817bffffffffffffffffffffffffffffffffffffffffffffffffffffffff191614611f8857836040517f64a0ae92000000000000000000000000000000000000000000000000000000008152600401611f7f91906128ea565b60405180910390fd5b505b50505050565b600260075403611fcc576040517f3ee5aeb500000000000000000000000000000000000000000000000000000000815260040160405180910390fd5b6002600781905550565b6001600781905550565b606060405180602001604052806000815250905090565b6060600060016120068461236a565b01905060008167ffffffffffffffff81111561202557612024612aa4565b5b6040519080825280601f01601f1916602001820160405280156120575781602001600182028036833780820191505090505b509050600082602001820190505b6001156120ba578080600190039150507f3031323334353637383961626364656600000000000000000000000000000000600a86061a8153600a85816120ae576120ad61373b565b5b04945060008503612065575b819350505050919050565b80806120fe5750600073ffffffffffffffffffffffffffffffffffffffff168273ffffffffffffffffffffffffffffffffffffffff1614155b1561223257600061210e846117c9565b9050600073ffffffffffffffffffffffffffffffffffffffff168373ffffffffffffffffffffffffffffffffffffffff161415801561217957508273ffffffffffffffffffffffffffffffffffffffff168173ffffffffffffffffffffffffffffffffffffffff1614155b801561218c575061218a8184611645565b155b156121ce57826040517fa9fbf51f0000000000000000000000000000000000000000000000000000000081526004016121c591906128ea565b60405180910390fd5b811561223057838573ffffffffffffffffffffffffffffffffffffffff168273ffffffffffffffffffffffffffffffffffffffff167f8c5be1e5ebec7d5bd14f71427d1e84f3dd0314c0f7b2291e5b200ac8c7c3b92560405160405180910390a45b505b836004600085815260200190815260200160002060006101000a81548173ffffffffffffffffffffffffffffffffffffffff021916908373ffffffffffffffffffffffffffffffffffffffff16021790555050505050565b61229483836124bd565b6122a16000848484611dd9565b505050565b6122b18383836125b6565b61236557600073ffffffffffffffffffffffffffffffffffffffff168373ffffffffffffffffffffffffffffffffffffffff160361232657806040517f7e27328900000000000000000000000000000000000000000000000000000000815260040161231d9190612ca9565b60405180910390fd5b81816040517f177e802f00000000000000000000000000000000000000000000000000000000815260040161235c92919061376a565b60405180910390fd5b505050565b600080600090507a184f03e93ff9f4daa797ed6e38ed64bf6a1f01000000000000000083106123c8577a184f03e93ff9f4daa797ed6e38ed64bf6a1f01000000000000000083816123be576123bd61373b565b5b0492506040810190505b6d04ee2d6d415b85acef81000000008310612405576d04ee2d6d415b85acef810000000083816123fb576123fa61373b565b5b0492506020810190505b662386f26fc10000831061243457662386f26fc10000838161242a5761242961373b565b5b0492506010810190505b6305f5e100831061245d576305f5e10083816124535761245261373b565b5b0492506008810190505b61271083106124825761271083816124785761247761373b565b5b0492506004810190505b606483106124a5576064838161249b5761249a61373b565b5b0492506002810190505b600a83106124b4576001810190505b80915050919050565b600073ffffffffffffffffffffffffffffffffffffffff168273ffffffffffffffffffffffffffffffffffffffff160361252f5760006040517f64a0ae9200000000000000000000000000000000000000000000000000000000815260040161252691906128ea565b60405180910390fd5b600061253d83836000611903565b9050600073ffffffffffffffffffffffffffffffffffffffff168173ffffffffffffffffffffffffffffffffffffffff16146125b15760006040517f73c6ac6e0000000000000000000000000000000000000000000000000000000081526004016125a891906128ea565b60405180910390fd5b505050565b60008073ffffffffffffffffffffffffffffffffffffffff168373ffffffffffffffffffffffffffffffffffffffff161415801561266e57508273ffffffffffffffffffffffffffffffffffffffff168473ffffffffffffffffffffffffffffffffffffffff16148061262f575061262e8484611645565b5b8061266d57508273ffffffffffffffffffffffffffffffffffffffff1661265583611851565b73ffffffffffffffffffffffffffffffffffffffff16145b5b90509392505050565b6040518060c0016040528060608152602001600073ffffffffffffffffffffffffffffffffffffffff1681526020016000815260200160608152602001600015158152602001600081525090565b6000604051905090565b600080fd5b600080fd5b60007fffffffff0000000000000000000000000000000000000000000000000000000082169050919050565b61270e816126d9565b811461271957600080fd5b50565b60008135905061272b81612705565b92915050565b600060208284031215612747576127466126cf565b5b60006127558482850161271c565b91505092915050565b60008115159050919050565b6127738161275e565b82525050565b600060208201905061278e600083018461276a565b92915050565b600081519050919050565b600082825260208201905092915050565b60005b838110156127ce5780820151818401526020810190506127b3565b60008484015250505050565b6000601f19601f8301169050919050565b60006127f682612794565b612800818561279f565b93506128108185602086016127b0565b612819816127da565b840191505092915050565b6000602082019050818103600083015261283e81846127eb565b905092915050565b6000819050919050565b61285981612846565b811461286457600080fd5b50565b60008135905061287681612850565b92915050565b600060208284031215612892576128916126cf565b5b60006128a084828501612867565b91505092915050565b600073ffffffffffffffffffffffffffffffffffffffff82169050919050565b60006128d4826128a9565b9050919050565b6128e4816128c9565b82525050565b60006020820190506128ff60008301846128db565b92915050565b61290e816128c9565b811461291957600080fd5b50565b60008135905061292b81612905565b92915050565b60008060408385031215612948576129476126cf565b5b60006129568582860161291c565b925050602061296785828601612867565b9150509250929050565b600082825260208201905092915050565b600061298d82612794565b6129978185612971565b93506129a78185602086016127b0565b6129b0816127da565b840191505092915050565b6129c4816128c9565b82525050565b6129d381612846565b82525050565b6129e28161275e565b82525050565b600060c0830160008301518482036000860152612a058282612982565b9150506020830151612a1a60208601826129bb565b506040830151612a2d60408601826129ca565b5060608301518482036060860152612a458282612982565b9150506080830151612a5a60808601826129d9565b5060a0830151612a6d60a08601826129ca565b508091505092915050565b60006020820190508181036000830152612a9281846129e8565b905092915050565b600080fd5b600080fd5b7f4e487b7100000000000000000000000000000000000000000000000000000000600052604160045260246000fd5b612adc826127da565b810181811067ffffffffffffffff82111715612afb57612afa612aa4565b5b80604052505050565b6000612b0e6126c5565b9050612b1a8282612ad3565b919050565b600067ffffffffffffffff821115612b3a57612b39612aa4565b5b612b43826127da565b9050602081019050919050565b82818337600083830152505050565b6000612b72612b6d84612b1f565b612b04565b905082815260208101848484011115612b8e57612b8d612a9f565b5b612b99848285612b50565b509392505050565b600082601f830112612bb657612bb5612a9a565b5b8135612bc6848260208601612b5f565b91505092915050565b612bd88161275e565b8114612be357600080fd5b50565b600081359050612bf581612bcf565b92915050565b60008060008060808587031215612c1557612c146126cf565b5b600085013567ffffffffffffffff811115612c3357612c326126d4565b5b612c3f87828801612ba1565b945050602085013567ffffffffffffffff811115612c6057612c5f6126d4565b5b612c6c87828801612ba1565b9350506040612c7d87828801612be6565b9250506060612c8e87828801612867565b91505092959194509250565b612ca381612846565b82525050565b6000602082019050612cbe6000830184612c9a565b92915050565b600080600060608486031215612cdd57612cdc6126cf565b5b6000612ceb8682870161291c565b9350506020612cfc8682870161291c565b9250506040612d0d86828701612867565b9150509250925092565b60008060408385031215612d2e57612d2d6126cf565b5b6000612d3c85828601612867565b9250506020612d4d8582860161291c565b9150509250929050565b600060208284031215612d6d57612d6c6126cf565b5b6000612d7b8482850161291c565b91505092915050565b60008060408385031215612d9b57612d9a6126cf565b5b6000612da985828601612867565b925050602083013567ffffffffffffffff811115612dca57612dc96126d4565b5b612dd685828601612ba1565b9150509250929050565b60008060408385031215612df757612df66126cf565b5b6000612e0585828601612867565b9250506020612e1685828601612867565b9150509250929050565b60008060408385031215612e3757612e366126cf565b5b6000612e458582860161291c565b9250506020612e5685828601612be6565b9150509250929050565b600060c0820190508181036000830152612e7a81896127eb565b9050612e8960208301886128db565b612e966040830187612c9a565b8181036060830152612ea881866127eb565b9050612eb7608083018561276a565b612ec460a0830184612c9a565b979650505050505050565b600067ffffffffffffffff821115612eea57612ee9612aa4565b5b612ef3826127da565b9050602081019050919050565b6000612f13612f0e84612ecf565b612b04565b905082815260208101848484011115612f2f57612f2e612a9f565b5b612f3a848285612b50565b509392505050565b600082601f830112612f5757612f56612a9a565b5b8135612f67848260208601612f00565b91505092915050565b60008060008060808587031215612f8a57612f896126cf565b5b6000612f988782880161291c565b9450506020612fa98782880161291c565b9350506040612fba87828801612867565b925050606085013567ffffffffffffffff811115612fdb57612fda6126d4565b5b612fe787828801612f42565b91505092959194509250565b6000806040838503121561300a576130096126cf565b5b60006130188582860161291c565b92505060206130298582860161291c565b9150509250929050565b7f4e487b7100000000000000000000000000000000000000000000000000000000600052602260045260246000fd5b6000600282049050600182168061307a57607f821691505b60208210810361308d5761308c613033565b5b50919050565b7f436f6e74656e7420646f6573206e6f7420657869737400000000000000000000600082015250565b60006130c960168361279f565b91506130d482613093565b602082019050919050565b600060208201905081810360008301526130f8816130bc565b9050919050565b7f4e487b7100000000000000000000000000000000000000000000000000000000600052601160045260246000fd5b600061313982612846565b915061314483612846565b925082820190508082111561315c5761315b6130ff565b5b92915050565b60008190508160005260206000209050919050565b60006020601f8301049050919050565b600082821b905092915050565b6000600883026131c47fffffffffffffffffffffffffffffffffffffffffffffffffffffffffffffffff82613187565b6131ce8683613187565b95508019841693508086168417925050509392505050565b6000819050919050565b600061320b61320661320184612846565b6131e6565b612846565b9050919050565b6000819050919050565b613225836131f0565b61323961323182613212565b848454613194565b825550505050565b600090565b61324e613241565b61325981848461321c565b505050565b5b8181101561327d57613272600082613246565b60018101905061325f565b5050565b601f8211156132c25761329381613162565b61329c84613177565b810160208510156132ab578190505b6132bf6132b785613177565b83018261325e565b50505b505050565b600082821c905092915050565b60006132e5600019846008026132c7565b1980831691505092915050565b60006132fe83836132d4565b9150826002028217905092915050565b61331782612794565b67ffffffffffffffff8111156133305761332f612aa4565b5b61333a8254613062565b613345828285613281565b600060209050601f8311600181146133785760008415613366578287015190505b61337085826132f2565b8655506133d8565b601f19841661338686613162565b60005b828110156133ae57848901518255600182019150602085019450602081019050613389565b868310156133cb57848901516133c7601f8916826132d4565b8355505b6001600288020188555050505b505050505050565b60006060820190506133f56000830186612c9a565b61340260208301856128db565b818103604083015261341481846127eb565b9050949350505050565b600060608201905061343360008301866128db565b6134406020830185612c9a565b61344d60408301846128db565b949350505050565b600081905092915050565b600061346b82612794565b6134758185613455565b93506134858185602086016127b0565b80840191505092915050565b600061349d8284613460565b915081905092915050565b600081546134b581613062565b6134bf8186613455565b945060018216600081146134da57600181146134ef57613522565b60ff1983168652811515820286019350613522565b6134f885613162565b60005b8381101561351a578154818901526001820191506020810190506134fb565b838801955050505b50505092915050565b600061353782846134a8565b915081905092915050565b7f4f6e6c7920636f6e74656e74206f776e65722063616e2075706461746520707260008201527f6963650000000000000000000000000000000000000000000000000000000000602082015250565b600061359e60238361279f565b91506135a982613542565b604082019050919050565b600060208201905081810360008301526135cd81613591565b9050919050565b60006040820190506135e96000830185612c9a565b6135f660208301846128db565b9392505050565b60006060820190506136126000830186612c9a565b61361f60208301856128db565b61362c6040830184612c9a565b949350505050565b60006136408285613460565b915061364c8284613460565b91508190509392505050565b600081519050919050565b600082825260208201905092915050565b600061367f82613658565b6136898185613663565b93506136998185602086016127b0565b6136a2816127da565b840191505092915050565b60006080820190506136c260008301876128db565b6136cf60208301866128db565b6136dc6040830185612c9a565b81810360608301526136ee8184613674565b905095945050505050565b60008151905061370881612705565b92915050565b600060208284031215613724576137236126cf565b5b6000613732848285016136f9565b91505092915050565b7f4e487b7100000000000000000000000000000000000000000000000000000000600052601260045260246000fd5b600060408201905061377f60008301856128db565b61378c6020830184612c9a565b939250505056fea2646970667358221220bbd1ecece9bf74d1650be424358587da8e034c32116ab68e64b65908509bfd9c64736f6c63430008180033",
  "linkReferences": {},
  "deployedLinkReferences": {}
}